:0400000021EF00F0FC
:100008000182FACF0BF0FBCF0CF0D9CF0DF0DACF8D
:100018000EF0F3CF0FF0F4CF10F01BEC12F010C07D
:10002800F4FF0FC0F3FF0EC0DAFF0DC0D9FF0CC0FC
:0E003800FBFF0BC0FAFF01921100F3EF11F075
:10030000003C6C3636CF0750B98488083CABAA2A2B
:10031000BEA3858832DA0FC93F83F9223F0000006F
:100320003F179ACC373F04B6BA9FAA2A3D00000077
:10033000BFDB0FC940E4CB9640DB0F4940DB0FC960
:100340003F00A0C0B6F0A1C0B7F0A2C0B8F0A3C0F3
:10035000B9F00001B9BFAFEF01F0B2EF01F0010E4B
:10036000B3EF01F0000EAD6FB99FDB0EB65D0F0E5F
:10037000B759490EB8593F0EB959D8B0C2EF01F07C
:10038000C4EF01F0EDEF01F0800EB85D390EB95900
:10039000D8B0CDEF01F0CFEF01F0D9EF01F0A0C060
:1003A000A0F0A1C0A1F0A2C0A2F0A3C0A3F025EFCD
:1003B00004F0A0C060F0A1C061F0A2C062F0A3C0D0
:1003C00063F03DEC0CF060C0A0F061C0A1F062C031
:1003D000A2F063C0A3F025EF04F0D20EB65D530E79
:1003E000B7597B0EB859400EB959D8B0FAEF01F0A1
:1003F000FCEF01F0DFEF02F0E40EB65DCB0EB75973
:10040000160EB859400EB959D8B009EF02F00BEFEB
:1004100002F079EF02F0AD51D8B411EF02F013EF12
:1004200002F04BEF02F0DB0E3C6E0F0E3D6EC90E7C
:100430003E6E3F0E3F6EA0C038F0A1C039F0A2C0A2
:100440003AF0A3C03BF026EC04F038C0AEF039C05F
:10045000AFF03AC0B0F03BC0B1F0AEC060F0AFC09A
:1004600061F0B0C062F0B1C063F056EC0DF060C056
:100470007CF061C07DF062C07EF063C07FF081ECF3
:1004800012F07CC0A0F07DC0A1F07EC0A2F07FC0C1
:10049000A3F025EF04F0A0C038F0A1C039F0A2C04D
:1004A0003AF0A3C03BF0DB0E3C6E0F0E3D6EC90E62
:1004B0003E6EBF0E3F6E26EC04F038C0AEF039C081
:1004C000AFF03AC0B0F03BC0B1F0AEC060F0AFC02A
:1004D00061F0B0C062F0B1C063F056EC0DF060C0E6
:1004E000A0F061C0A1F062C0A2F063C0A3F025EF4C
:1004F00004F0AD51D8A47FEF02F081EF02F0A7EF36
:1005000002F0DB0E3C6E0F0E3D6E490E3E6EC00ECD
:100510003F6EA0C038F0A1C039F0A2C03AF0A3C02D
:100520003BF026EC04F038C07CF039C07DF03AC0D6
:100530007EF03BC07FF081EC12F07CC0A4F07DC067
:10054000A5F07EC0A6F07FC0A7F0CBEF02F0DB0ED7
:100550003C6E0F0E3D6E490E3E6E400E3F6EA0C0CB
:1005600038F0A1C039F0A2C03AF0A3C03BF026ECAD
:1005700004F038C07CF039C07DF03AC07EF03BC05A
:100580007FF081EC12F07CC0A4F07DC0A5F07EC0AD
:10059000A6F07FC0A7F0A4C060F0A5C061F0A6C01F
:1005A00062F0A7C063F03DEC0CF060C0A0F061C049
:1005B000A1F062C0A2F063C0A3F025EF04F0D60E54
:1005C000B65D310EB759E20EB859400EB959D8B0E0
:1005D000ECEF02F0EEEF02F08FEF03F0E00EB65D0D
:1005E000ED0EB759AF0EB859400EB959D8B0FBEF60
:1005F00002F0FDEF02F03DEF03F0AD51D8B403EF90
:1006000003F005EF03F021EF03F0A0C038F0A1C024
:1006100039F0A2C03AF0A3C03BF0E40E3C6ECB0E22
:100620003D6E960E3E6E400E3F6E26EC04F038C0D6
:10063000AEF039C0AFF03AC0B0F03BC0B1F065EFFA
:1006400002F0E40E3C6ECB0E3D6E960E3E6EC00E7A
:100650003F6EA0C038F0A1C039F0A2C03AF0A3C0EC
:100660003BF026EC04F038C0AEF039C0AFF03AC031
:10067000B0F03BC0B1F02DEF02F0AD51D8A443EF84
:1006800003F045EF03F061EF03F0A0C038F0A1C024
:1006900039F0A2C03AF0A3C03BF0DB0E3C6E0F0E67
:1006A0003D6EC90E3E6EC00E3F6E26EC04F038C0A3
:1006B000A8F039C0A9F03AC0AAF03BC0ABF07BEF7C
:1006C00003F0A0C038F0A1C039F0A2C03AF0A3C036
:1006D0003BF0DB0E3C6E0F0E3D6EC90E3E6E400EC3
:1006E0003F6E26EC04F038C0A8F039C0A9F03AC03B
:1006F000AAF03BC0ABF0A8C060F0A9C061F0AAC0EE
:1007000062F0ABC063F03DEC0CF060C0A0F061C0E3
:10071000A1F062C0A2F063C0A3F025EF04F0800E48
:10072000B85D7F0EB959D8A098EF03F09AEF03F0A7
:10073000ACEF03F0FF0EB613FF0EB713FF0EB813A6
:10074000000EB913B6C0A0F0B7C0A1F0B8C0A2F0B7
:10075000B9C0A3F025EF04F0A0C080F0A1C081F0E3
:10076000A2C082F0A3C083F0B20E846F94EC08F0B4
:1007700000018051030BAC6F16EF04F0B2C07CF0A7
:10078000B3C07DF0B4C07EF0B5C07FF081EC12F054
:100790007CC0B2F07DC0B3F07EC0B4F07FC0B5F0D5
:1007A000B2C060F0B3C061F0B4C062F0B5C063F035
:1007B0003DEC0CF060C0A0F061C0A1F062C0A2F0FE
:1007C00063C0A3F025EF04F0B2C060F0B3C061F0E5
:1007D000B4C062F0B5C063F056EC0DF060C0A0F09C
:1007E00061C0A1F062C0A2F063C0A3F025EF04F0E5
:1007F000B2C060F0B3C061F0B4C062F0B5C063F0E5
:1008000056EC0DF060C07CF061C07DF062C07EF0FF
:1008100063C07FF081EC12F07CC0A0F07DC0A1F03D
:100820007EC0A2F07FC0A3F025EF04F0AC51000A17
:10083000D8B4D0EF03F0010AD8B4E4EF03F0030A10
:10084000D8B4BEEF03F0F8EF03F012003B50800B7A
:10085000446E3B503B24466E3AAE31EF04F033EF2A
:1008600004F034EF04F046804650D8B43AEF04F078
:100870003CEF04F050EF04F04628D8A442EF04F017
:1008800044EF04F04CEF04F0000E386E000E396EA9
:10089000000E3A6E000E3B6E3A8E3B6A58EF04F043
:1008A000000E386E000E396E000E3A6E000E3B6E72
:1008B0003F50800B456E44504518D8B462EF04F0A9
:1008C00064EF04F065EF04F0448C3F503F24456E24
:1008D0003EAE6DEF04F06FEF04F070EF04F0458072
:1008E0004550D8B476EF04F078EF04F08CEF04F0C4
:1008F0004528D8A47EEF04F080EF04F088EF04F0E0
:10090000000E3C6E000E3D6E000E3E6E000E3F6E01
:100910003E8E3F6A94EF04F0000E3C6E000E3D6E7A
:10092000000E3E6E000E3F6E4650455CD8B09BEF09
:1009300004F09DEF04F0C4EF04F044ACA2EF04F027
:10094000A4EF04F0A6EF04F0800E441A46C047F06E
:1009500045C046F047C045F038C047F03CC038F0CD
:1009600047C03CF039C047F03DC039F047C03DF0CA
:100970003AC047F03EC03AF047C03EF03BC047F0B7
:100980003FC03BF047C03FF0476A465045C040F08B
:10099000416A405E000E415A41BED8EF04F041501A
:1009A00009E11A0E405CD8A0D8EF04F0DAEF04F0A9
:1009B00011EF05F0385039103A103B10D8A4E3EF8E
:1009C00004F0E6EF04F0010EE7EF04F0000E476ECE
:1009D000000E386E000E396E000E3A6E000E3B6E41
:1009E00045C046F01AEF05F047A0F9EF04F0FBEF21
:1009F00004F001EF05F0D89047300109476E03EF8E
:100A000005F0D890473238A008EF05F00AEF05F05E
:100A10000BEF05F0478E3B343B323A3239323832F5
:100A2000462A4550465CD8A018EF05F01AEF05F0AD
:100A3000F4EF04F044BC1FEF05F021EF05F061EF87
:100A400005F04650D8A427EF05F029EF05F033EF65
:100A500005F0000E386E000E396E000E3A6E000E74
:100A60003B6E80EF06F03C5038263D5039223E5018
:100A70003A223F503B223BA040EF05F042EF05F009
:100A8000EEEF05F047A047EF05F049EF05F04FEF17
:100A900005F0D89047300109476E51EF05F0D89026
:100AA000473238A056EF05F058EF05F059EF05F042
:100AB000478E3B343B323A3239323832462AEEEFF7
:100AC00005F03C50385C3D5039583E503A583B5048
:100AD000800A406E3F50800A4058D8B072EF05F04F
:100AE00074EF05F09FEF05F038503C5C406E3950D4
:100AF0003D58416E3A503E58426E3B503F58436E0F
:100B0000FF0E4024386EFF0E4120396EFF0E42204A
:100B10003A6EFF0E43203B6E800E441A476C4750DE
:100B2000D8A495EF05F097EF05F0A7EF05F0010EBB
:100B30003826000E39223A223B22A7EF05F03C501E
:100B4000385E3D50395A3E503A5A3F503B5A385021
:100B500039103A103B10D8A4B0EF05F0B2EF05F011
:100B6000E7EF05F04750D8A4B8EF05F0BAEF05F06D
:100B7000E7EF05F0000E386E000E396E000E3A6E8B
:100B8000000E3B6E80EF06F0D890383639363A3694
:100B90003B3647AECEEF05F0D0EF05F0D1EF05F0D4
:100BA000388047A0D6EF05F0D8EF05F0DCEF05F070
:100BB000D8804736DEEF05F0D89047364650D8B497
:100BC000E4EF05F0E6EF05F0E7EF05F046063AAE94
:100BD000ECEF05F0EEEF05F0C4EF05F0456A47AE27
:100BE000F4EF05F0F6EF05F00EEF06F047C040F029
:100BF0007F0E4016D8B4FFEF05F001EF06F005EFC9
:100C000006F0010E456E0EEF06F038A00AEF06F072
:100C10000CEF06F00EEF06F001EF06F04550D8B4E9
:100C200014EF06F016EF06F041EF06F0010E38263D
:100C3000000E39223A223B223BA021EF06F023EF9F
:100C400006F041EF06F038C040F039C041F03AC03C
:100C500042F03BC043F043344332423241324032EF
:100C600040C038F041C039F042C03AF043C03BF0D8
:100C70004628D8B43EEF06F040EF06F041EF06F00C
:100C8000462A4628D8B447EF06F049EF06F051EF60
:100C900006F04650D8A44FEF06F051EF06F062EF91
:100CA00006F0000E386E000E396E000E3A6E000E21
:100CB0003B6E4650D8A45FEF06F061EF06F062EF9E
:100CC00006F0446A46A067EF06F069EF06F06CEFA5
:100CD00006F03A8E6DEF06F03A9ED89046303B6EA5
:100CE00044AE75EF06F077EF06F078EF06F03B8E36
:100CF00038C038F039C039F03AC03AF03BC03BF068
:100D000012002250800B2B6E22502224316E21AE15
:100D10008CEF06F08EEF06F08FEF06F03180315049
:100D2000D8B495EF06F097EF06F0AAEF06F0312859
:100D3000D8A49DEF06F09FEF06F0A7EF06F0000E97
:100D40001F6E000E206E000E216E000E226E218E90
:100D5000B2EF06F0000E1F6E000E206E000E216E28
:100D6000000E226E2650800B2B1A26502624306E41
:100D700025AEBDEF06F0BFEF06F0C0EF06F0308005
:100D80003050D8B4C6EF06F0C8EF06F0DBEF06F03F
:100D90003028D8A4CEEF06F0D0EF06F0D8EF06F05A
:100DA000000E236E000E246E000E256E000E266EC1
:100DB000258EE3EF06F0000E236E000E246E000E6B
:100DC000256E000E266E3050D8B4E9EF06F0EBEF3A
:100DD00006F0F3EF06F03150D8A4F1EF06F0F3EF90
:100DE00006F0FDEF06F0000E1F6E000E206E000EE6
:100DF000216E000E226E93EF08F025501F02F3CFF4
:100E000036F0F4CF37F036502C6E2D6A2E6A2F6AEA
:100E10003750326E336A346A356A24502002F3CF79
:100E200036F0F4CF37F036502C26000E2D222E222D
:100E30002F2237503226000E3322342235222350FF
:100E40002102F3CF36F0F4CF37F036502C26000EC7
:100E50002D222E222F2237503226000E332234220A
:100E600035222EC02FF02DC02EF02CC02DF02C6A74
:100E700023502002F3CF36F0F4CF37F036502C2633
:100E800037502D22000E2E22000E2F2224501F023A
:100E9000F3CF36F0F4CF37F036502C2637502D22D2
:100EA000000E2E22000E2F222EC02FF02DC02EF06D
:100EB0002CC02DF02C6A23501F02F3CF36F0F4CF54
:100EC00037F036502C2637502D22000E2E22000EE1
:100ED0002F2225502002F3CF36F0F4CF37F03650D2
:100EE000322637503322000E3422000E3522245091
:100EF0002102F3CF36F0F4CF37F036503226375098
:100F00003322000E3422000E352225502102F3CF69
:100F100036F0F4CF37F03650276E3750286E296AF6
:100F20002A6A29C02AF028C029F027C028F0276A99
:100F30002750322628503322295034222A50352275
:100F40002CC027F02DC028F02EC029F02FC02AF089
:100F5000190EB0EF07F0D8902A3229322832273202
:100F6000E82EABEF07F027503226285033222950C5
:100F700034222A5035222EC02FF02DC02EF02CC046
:100F80002DF02C6A305031C027F0286A2726000E39
:100F90002822820E2724366EFF0E2820376EE6EFB9
:100FA00007F0D89032363336343635362FAEDBEF95
:100FB00007F0DDEF07F0DEEF07F03280D8902C3637
:100FC0002D362E362F363606D8A0370634AEEBEF48
:100FD00007F0EDEF07F0D1EF07F0306A2FAEF3EF37
:100FE00007F0F5EF07F019EF08F0FF0E2C14276E4D
:100FF000FF0E2D14286EFF0E2E14296E7F0E2F1457
:101000002A6E2750281029102A10D8B40AEF08F0A9
:101010000CEF08F010EF08F0010E306E19EF08F039
:1010200032A015EF08F017EF08F019EF08F00CEFF9
:1010300008F03050D8B41FEF08F021EF08F045EF6A
:1010400008F0010E3226000E33223422352235A05C
:101050002CEF08F02EEF08F045EF08F032C027F033
:1010600033C028F034C029F035C02AF02A342A329F
:1010700029322832273227C032F028C033F029C065
:1010800034F02AC035F0364A372A37BE50EF08F020
:10109000375008E13628D8A050EF08F052EF08F09A
:1010A0005CEF08F0000E326E000E336E800E346E70
:1010B0007F0E356E89EF08F037BE69EF08F03750C4
:1010C00006E13604D8B067EF08F069EF08F074EF76
:1010D00008F0000E326E000E336E000E346E000EFD
:1010E000356E2B6A89EF08F036C031F0FF0E3216EC
:1010F000FF0E33167F0E3416000E351631A083EF27
:1011000008F085EF08F086EF08F0348ED890313083
:10111000356E2B50351232C01FF033C020F034C072
:1011200021F035C022F01200ECC090F0EDC091F03B
:10113000EEC092F0EFC093F080C090F081C091F0CB
:1011400082C092F083C093F0000193BFAAEF08F031
:10115000ADEF08F0010EAEEF08F0000E8F6F939F19
:10116000DB0E905D0F0E9159C90E92594D0E935999
:10117000D8B0BDEF08F0BFEF08F0ABEF09F080C0CA
:1011800011F081C012F082C013F083C014F09EEC05
:1011900012F011C098F012C099F013C09AF014C068
:1011A0009BF0000E3C6E000E3D6E000E3E6E3F0E3C
:1011B0003F6E830E236EF90E246E220E256E3F0EB7
:1011C000266E98C01FF099C020F09AC021F09BC0F5
:1011D00022F081EC06F01FC038F020C039F021C0A9
:1011E0003AF022C03BF026EC04F038C060F039C081
:1011F00061F03AC062F03BC063F08CEC10F060C06C
:101200009CF061C09DF062C09EF063C09FF09CC0E6
:1012100011F09DC012F09EC013F09FC014F0010E9B
:1012200055EC0EF011C094F012C095F013C096F07A
:1012300014C097F0DA0E236E0F0E246EC90E256EC1
:101240003F0E266E94C01FF095C020F096C021F08E
:1012500097C022F081EC06F01FC064F020C065F05A
:1012600021C066F022C067F098C060F099C061F0BC
:101270009AC062F09BC063F040EC12F060C08BF04B
:1012800061C08CF062C08DF063C08EF08BC060F0E6
:101290008CC061F08DC062F08EC063F0A30E236E2F
:1012A000850E246E880E256E320E266E94C01FF0B9
:1012B00095C020F096C021F097C022F081EC06F096
:1012C0001FC064F020C065F021C066F022C067F046
:1012D00040EC12F000018451D96EDA6A60C0DEFF82
:1012E00061C0DEFF62C0DEFF63C0DEFF8F51D8B495
:1012F0007CEF09F07EEF09F0A5EF09F08451D96E7B
:10130000DA6ADECF7CF0DECF7DF0DECF7EF0DECF9E
:101310007FF081EC12F000018451D96EDA6A7CC052
:10132000DEFF7DC0DEFF7EC0DEFF7FC0DEFF9CC033
:1013300085F09DC086F0851F861F854B862B85C056
:1013400080F086C081F074EF0AF09CC080F09DC0F0
:1013500081F074EF0AF080C011F081C012F082C0F9
:1013600013F083C014F09EEC12F011C098F012C07C
:1013700099F013C09AF014C09BF0000E3C6E000E62
:101380003D6E000E3E6E3F0E3F6E830E236EF90ED5
:10139000246E220E256E3F0E266E98C01FF099C057
:1013A00020F09AC021F09BC022F081EC06F01FC013
:1013B00038F020C039F021C03AF022C03BF026ECD2
:1013C00004F038C060F039C061F03AC062F03BC050
:1013D00063F08CEC10F060C09CF061C09DF062C0C6
:1013E0009EF063C09FF09CC011F09DC012F09EC0A3
:1013F00013F09FC014F0010E55EC0EF011C094F0E4
:1014000012C095F013C096F014C097F0DA0E236E58
:101410000F0E246EC90E256E3F0E266E94C01FF06F
:1014200095C020F096C021F097C022F081EC06F024
:101430001FC064F020C065F021C066F022C067F0D4
:1014400098C060F099C061F09AC062F09BC063F0F0
:1014500040EC12F060C08BF061C08CF062C08DF087
:1014600063C08EF08BC060F08CC061F08DC062F004
:101470008EC063F0A30E236E850E246E880E256E3B
:10148000320E266E94C01FF095C020F096C021F059
:1014900097C022F081EC06F01FC064F020C065F018
:1014A00021C066F022C067F040EC12F060C087F007
:1014B00061C088F062C089F063C08AF00001845185
:1014C000D96EDA6A87C0DEFF88C0DEFF89C0DEFF22
:1014D0008AC0DEFF8F51D8B470EF0AF072EF0AF0C5
:1014E000A5EF09F07EEF09F012003B50800B0001E0
:1014F000646F3B503B246B6F3AAE81EF0AF083EF91
:101500000AF084EF0AF06B816B51D8B48AEF0AF0CD
:101510008CEF0AF0A0EF0AF06B29D8A492EF0AF042
:1015200094EF0AF09CEF0AF0000E386E000E396E50
:10153000000E3A6E000E3B6E3A8E3B6AA8EF0AF040
:10154000000E386E000E396E000E3A6E000E3B6EC5
:101550003F50800B641B3F503F246C6F3EAEB3EF97
:101560000AF0B5EF0AF0B6EF0AF06C816C51D8B40E
:10157000BCEF0AF0BEEF0AF0D2EF0AF06C29D8A453
:10158000C4EF0AF0C6EF0AF0CEEF0AF0000E3C6E90
:10159000000E3D6E000E3E6E000E3F6E3E8E3F6AA8
:1015A000DAEF0AF0000E3C6E000E3D6E000E3E6E4D
:1015B000000E3F6E3C503D103E103F10D8A4E3EFAC
:1015C0000AF0E5EF0AF0FDEF0AF0000E386E000EAB
:1015D000396E000E3A6E000E3B6E800E3A127F0E90
:1015E0003B1264513B1238C038F039C039F03AC070
:1015F0003AF03BC03BF03CEF0CF06B51D8A403EF4A
:101600000BF005EF0BF00FEF0BF0000E386E000E35
:10161000396E000E3A6E000E3B6E3CEF0CF06C51D2
:101620006BC040F0416A405E000E415A7F0E40247C
:10163000656F000E4120666F38C060F039C061F000
:101640003AC062F03BC063F0000E386E000E396E97
:10165000000E3A6E000E3B6E000E676F000E686F54
:10166000000E696F000E6A6F6C6B6FEF0BF06C51C0
:10167000D8B43DEF0BF03FEF0BF056EF0BF0D890E6
:101680006037613762376337D890383639363A3643
:101690003B366AAF4EEF0BF050EF0BF051EF0BF013
:1016A0003880D8906737683769376A373C50605D53
:1016B0003D5061593E5062593F506359D8A063EF85
:1016C0000BF065EF0BF06EEF0BF06A8D3C50605F36
:1016D0003D50615B3E50625B3F50635B6C2B190E6B
:1016E0006C6575EF0BF077EF0BF037EF0BF0605197
:1016F000611162116311D8B480EF0BF082EF0BF02F
:101700009AEF0BF067819AEF0BF0D89038363936A4
:101710003A363B366AAF8FEF0BF091EF0BF092EF5A
:101720000BF03880D8906737683769376A376507B4
:10173000D8A066073AAE9FEF0BF0A1EF0BF085EF54
:101740000BF06C6B6AAFA7EF0BF0A9EF0BF0CDEFCE
:101750000BF0FF0E6715406EFF0E6815416EFF0E11
:101760006915426E7F0E6A15436E4050411042105B
:101770004310D8B4BEEF0BF0C0EF0BF0C4EF0BF08A
:10178000010E6C6FCDEF0BF038A0C9EF0BF0CBEF73
:101790000BF0CDEF0BF0C0EF0BF06C51D8B4D3EFE2
:1017A0000BF0D5EF0BF0F9EF0BF0010E3826000E21
:1017B00039223A223B223BA0E0EF0BF0E2EF0BF0A4
:1017C000F9EF0BF038C040F039C041F03AC042F0B8
:1017D0003BC043F04334433242324132403240C096
:1017E00038F041C039F042C03AF043C03BF0654B9D
:1017F000662B66BF04EF0CF0665108E16529D8A09E
:1018000004EF0CF006EF0CF011EF0CF0000E666F19
:101810006569000E386E000E396E000E3A6E000ECD
:101820003B6E66BF1EEF0CF0665106E16505D8B051
:101830001CEF0CF01EEF0CF02AEF0CF0666B000EA4
:10184000656F000E386E000E396E000E3A6E000E97
:101850003B6E646B65C06BF06BA131EF0CF033EF46
:101860000CF036EF0CF03A8E37EF0CF03A9ED89031
:101870006B313B6EF1EF0AF0120060C01FF061C0E7
:1018800020F062C021F063C022F060C023F061C08C
:1018900024F062C025F063C026F081EC06F01FC082
:1018A0007CF020C07DF021C07EF022C07FF07CC0A3
:1018B0001FF07DC020F07EC021F07FC022F07CC0F0
:1018C00023F07DC024F07EC025F07FC026F081EC9F
:1018D00006F01FC068F020C069F021C06AF022C085
:1018E0006BF03C0E236E6C0E246E360E256E360E9B
:1018F000266E7CC01FF07DC020F07EC021F07FC02E
:1019000022F081EC06F01FC038F020C039F021C071
:101910003AF022C03BF0CF0E3C6E070E3D6E500EEB
:101920003E6EB90E3F6E26EC04F038C064F039C04C
:1019300065F03AC066F03BC067F07CC01FF07DC028
:1019400020F07EC021F07FC022F060C023F061C093
:1019500024F062C025F063C026F081EC06F01FC0C1
:1019600078F020C079F021C07AF022C07BF0AB0E75
:101970003C6EAA0E3D6E2A0E3E6EBE0E3F6E840E6B
:10198000236E880E246E080E256E3C0E266E7CC0DB
:101990001FF07DC020F07EC021F07FC022F081ECDE
:1019A00006F01FC038F020C039F021C03AF022C044
:1019B0003BF026EC04F038C06CF039C06DF03AC052
:1019C0006EF03BC06FF068C023F069C024F06AC0BD
:1019D00025F06BC026F078C01FF079C020F07AC0E7
:1019E00021F07BC022F081EC06F01FC070F020C017
:1019F00071F021C072F022C073F060C03CF061C091
:101A00003DF062C03EF063C03FF078C023F079C083
:101A100024F07AC025F07BC026F06CC01FF06DC0AA
:101A200020F06EC021F06FC022F081EC06F01FC0E4
:101A300038F020C039F021C03AF022C03BF026EC4B
:101A400004F038C074F039C075F03AC076F03BC08D
:101A500077F074C038F075C039F076C03AF077C0CE
:101A60003BF064C023F065C024F066C025F067C079
:101A700026F070C01FF071C020F072C021F073C05A
:101A800022F081EC06F01FC03CF020C03DF021C0E8
:101A90003EF022C03FF026EC04F038C060F039C0C0
:101AA00061F03AC062F03BC063F0120060C01FF00A
:101AB00061C020F062C021F063C022F060C023F05A
:101AC00061C024F062C025F063C026F081EC06F00E
:101AD0001FC078F020C079F021C07AF022C07BF0DE
:101AE00078C01FF079C020F07AC021F07BC022F0CE
:101AF00078C023F079C024F07AC025F07BC026F0AE
:101B000081EC06F01FC074F020C075F021C076F0A3
:101B100022C077F0170E236E9A0E246ECC0E256E1F
:101B2000370E266E78C01FF079C020F07AC021F001
:101B30007BC022F081EC06F01FC038F020C039F0E5
:101B400021C03AF022C03BF03F0E3C6E040E3D6EC9
:101B5000B60E3E6EBA0E3F6E26EC04F038C064F04E
:101B600039C065F03AC066F03BC067F0000E3C6ECD
:101B7000000E3D6E800E3E6E3F0E3F6E000E236ED9
:101B8000000E246E000E256EBF0E266E78C01FF06C
:101B900079C020F07AC021F07BC022F081EC06F001
:101BA0001FC038F020C039F021C03AF022C03BF00D
:101BB00026EC04F038C068F039C069F03AC06AF029
:101BC0003BC06BF078C023F079C024F07AC025F0D8
:101BD0007BC026F074C01FF075C020F076C021F0E5
:101BE00077C022F081EC06F01FC06CF020C06DF0D1
:101BF00021C06EF022C06FF09F0E236EAA0E246EDD
:101C00002A0E256E3D0E266E74C01FF075C020F0A2
:101C100076C021F077C022F081EC06F01FC03CF0C6
:101C200020C03DF021C03EF022C03FF068C038F037
:101C300069C039F06AC03AF06BC03BF026EC04F0A2
:101C400038C070F039C071F03AC072F03BC073F028
:101C500070C038F071C039F072C03AF073C03BF018
:101C600064C023F065C024F066C025F067C026F08C
:101C70006CC01FF06DC020F06EC021F06FC022F06C
:101C800081EC06F01FC03CF020C03DF021C03EF0CA
:101C900022C03FF026EC04F038C060F039C061F09B
:101CA0003AC062F03BC063F01200196E1950D8B40C
:101CB0005CEF0EF05EEF0EF080EF0EF014BE65EFFD
:101CC0000EF063EF0EF080EF0EF011C015F012C0B1
:101CD00016F013C017F014C018F0151E161E171EAC
:101CE000181E152A000E16221722182215C01BF0E6
:101CF00016C01CF017C01DF018C01EF088EF0EF0C3
:101D000011C01BF012C01CF013C01DF014C01EF057
:101D10001150121013101410D8A491EF0EF093EF7D
:101D20000EF09DEF0EF0000E116E000E126E000E02
:101D3000136E000E146E2EEF0FF0960E1A6EA7EFB4
:101D40000EF01A2AD8901E321D321C321B32000EA1
:101D50001B14156E000E1C14166E000E1D14176E4B
:101D6000FE0E1E14186E1550161017101810D8A459
:101D7000BCEF0EF0BEEF0EF0A1EF0EF0CCEF0EF0C8
:101D80001A2A010E1B26000E1C221D221E22D8908C
:101D90001E321D321C321B32000E1B14156E000E3B
:101DA0001C14166E000E1D14176EFF0E1E14186EF6
:101DB0001550161017101810D8A4E1EF0EF0E3EF2D
:101DC0000EF0C0EF0EF0EBEF0EF01A06D8901B36B7
:101DD0001C361D361E361DBEF0EF0EF0F2EF0EF073
:101DE000FAEF0EF0020E1A60F8EF0EF0FAEF0EF0B6
:101DF000E5EF0EF01AB0FFEF0EF001EF0FF002EF7B
:101E00000FF01D9ED8901A321AC015F0166A176A84
:101E1000186A15C018F0176A166A156A15501B1251
:101E200016501C1217501D1218501E121950D8B4FB
:101E30001CEF0FF01EEF0FF026EF0FF014BE25EF92
:101E40000FF023EF0FF026EF0FF01E8E1BC011F0E6
:101E50001CC012F01DC013F01EC014F012000001CF
:101E6000C76B000EC66FC7BF3FEF0FF0C75109E148
:101E7000320EC65DD8A03FEF0FF041EF0FF043EFF9
:101E80000FF0E7EF0FF0DB0E236E0F0E246EC90E7E
:101E9000256E400E266EC6C011F0C7C012F0000EAF
:101EA00012BEFF0E136E146E010E55EC0EF011C033
:101EB0001FF012C020F013C021F014C022F081ECFA
:101EC00006F01FC038F020C039F021C03AF022C01F
:101ED0003BF0000E3C6E000E3D6E480E3E6E420E14
:101EE0003F6E75EC0AF038C0BAF039C0BBF03AC0AA
:101EF000BCF03BC0BDF0BAC0A0F0BBC0A1F0BCC0FC
:101F0000A2F0BDC0A3F0A1EC01F0A0C0BEF0A1C042
:101F1000BFF0A2C0C0F0A3C0C1F0000E3C6E000E26
:101F20003D6E000E3E6E3F0E3F6ECD0E236ECC0E0C
:101F3000246ECC0E256E3E0E266EBEC01FF0BFC0B6
:101F400020F0C0C021F0C1C022F081EC06F01FC01B
:101F500038F020C039F021C03AF022C03BF026EC26
:101F600004F038C0C2F039C0C3F03AC0C4F03BC07E
:101F7000C5F0000E236E800E246EBB0E256E440E3F
:101F8000266EC2C01FF0C3C020F0C4C021F0C5C07F
:101F900022F081EC06F01FC060F020C061F021C08B
:101FA00062F022C063F08CEC10F0D8900001C635CE
:101FB000D96EC735DA6E000ED926010EDA2260C05E
:101FC000DEFF61C0DDFFC64BC72B33EF0FF0120001
:101FD0001150D96EDA6A0E0ED926DF507F6E11507D
:101FE000D96EDA6A0F0ED926DF507E6E1150D96E87
:101FF000DA6A100ED926DF506F6E1150D96EDA6A88
:10200000110ED926DF506E6E7D6A7C6A1150D96E32
:10201000DA6ADF507B6E1150D96EDA6ADECF12F0C9
:10202000DDCF13F013C012F0136A12507A6E115004
:10203000D96EDA6A020ED926DF50796E1150D96E48
:10204000DA6A020ED926DECF12F0DDCF13F013C00C
:1020500012F0136A1250786E1150D96EDA6A040EBB
:10206000D926DF50776E1150D96EDA6A040ED92660
:10207000DECF12F0DDCF13F013C012F0136A12504E
:10208000766E1150D96EDA6A060ED926DF50756E5B
:102090001150D96EDA6A060ED926DECF12F0DDCFE6
:1020A00013F013C012F0136A1250746E1150D96EEF
:1020B000DA6A080ED926DF50736E1150D96EDA6ACB
:1020C000080ED926DECF12F0DDCF13F013C012F0C8
:1020D000136A1250726E1150D96EDA6A0A0ED9263E
:1020E000DF506D6E1150D96EDA6A0B0ED926DF50B3
:1020F0006B6E1150D96EDA6A0C0ED926DF506A6EFB
:102100001150D96EDA6A0D0ED926DF506C6E0F0EA3
:10211000936EC60E946E1200000162356335496EEF
:102120004950D8A496EF10F098EF10F0A2EF10F0FD
:10213000000E606F000E616F000E626F000E636F25
:102140000FEF11F060C064F061C065F062C066F02E
:1021500063C067F0200EB2EF10F0D890673366339B
:1021600065336433E82EADEF10F06451486E628F32
:10217000FF0E6017FF0E6117FF0E6217000E631748
:10218000960E495E49BEC9EF10F0C7EF10F0DFEFC1
:1021900010F04950800A970FD8B0D1EF10F0D3EF6C
:1021A00010F0D5EF10F098EF10F0D8906333623351
:1021B00061336033493ED5EF10F0F7EF10F01F0E9A
:1021C0004964E5EF10F0E7EF10F0EFEF10F098EF53
:1021D00010F0D8906037613762376337490649504D
:1021E000D8A4F5EF10F0F7EF10F0E9EF10F0485039
:1021F000D8B4FDEF10F0FFEF10F007EF11F0631F00
:10220000621F611F606D000E61236223632360C043
:1022100060F061C061F062C062F063C063F0120000
:1022200050C008F0100E5024026E036A000E032204
:10223000056A320E046E6DEC11F00250096E210E2B
:102240005024026E036A000E0322056A320E046EE9
:102250006DEC11F002500A6E0850020D000EF324CE
:10226000D96E010EF420DA6EDECF02F0DDCF03F07E
:10227000000EC4EC11F00950020D000EF324D96ECB
:10228000010EF420DA6EDECF02F0DDCF03F0010E96
:10229000C4EC11F00A50020D000EF324D96E010EA9
:1022A000F420DA6EDECF02F0DDCF03F0020EC4ECD4
:1022B00011F0036A780E026E030EC4EC11F0010EE9
:1022C0005024026E036A000E0322056A320E046E69
:1022D0006DEC11F00250506E1200076A03BE75EFEC
:1022E00011F073EF11F07BEF11F0026C031ED8B008
:1022F000032A010E076E05BE82EF11F080EF11F088
:1023000086EF11F0046C051ED8B0052A04500510A4
:10231000D8B48DEF11F08FEF11F0B3EF11F0010E83
:10232000066E97EF11F0D89004360536062A05AEF2
:102330009CEF11F09EEF11F093EF11F00450025C4E
:1023400005500358D8A0A7EF11F0A9EF11F0ADEF99
:1023500011F00450025E0550035AD8900532043241
:10236000062E9EEF11F00750D8B4B9EF11F0BBEF75
:1023700011F0BFEF11F0026C031ED8B0032A02C0A7
:1023800002F003C003F01200046EDFEF11F002C090
:1023900079FF0350786EF2EF11F002C077FF03501F
:1023A000766EF2EF11F002C075FF0350746EF2EF1B
:1023B00011F002C073FF0350726EF2EF11F004507F
:1023C000000AD8B4C7EF11F0010AD8B4CDEF11F06C
:1023D000030AD8B4D3EF11F0010AD8B4D9EF11F041
:1023E000F2EF11F01200700EF66E250EF76E000E71
:1023F000F86E00EEDAF010EE12F00900F5CFEEFF05
:10240000E550E150FAE101EE00F0640EEE6AE806F4
:10241000FDE10001EF6BEE6BED6BEC6B00EE4AF053
:10242000070EEE6AE806FDE101900192000EF86EDB
:10243000000164EF12F0A4A820EF12F022EF12F0D6
:102440003FEF12F0A3A827EF12F029EF12F03FEFB1
:1024500012F04E504F10D8B430EF12F032EF12F0AD
:102460003EEF12F002D83EEF12F00500FA6E4E5029
:10247000FD6E4F50FE6EFF6AFA501200A4981200D3
:10248000000E0001641B000E651B000E661B800E13
:10249000671B60C038F061C039F062C03AF063C0B9
:1024A0003BF064C03CF065C03DF066C03EF067C0E4
:1024B0003FF026EC04F038C060F039C061F03AC05B
:1024C00062F03BC063F012002FEC0FF020EEDAF068
:1024D00010EEC8F0110EDBCFE3FFE806FCE2C80EF9
:1024E000116EE8EC0FF0200E116E220E126EC1EC90
:1024F00012F0CBEC12F0C6EC12F07DEF12F021EFEF
:1025000000F000017C517D117E117F11D8B48BEF5A
:1025100012F08DEF12F095EF12F0000E7C1B000E02
:102520007D1B000E7E1B800E7F1B7CC07CF07DC05F
:102530007DF07EC07EF07FC07FF012004AC015F0B3
:102540004BC016F04CC017F04DC018F011C015F07C
:1025500012C016F013C017F014C018F0189E15C062
:1025600011F016C012F017C013F018C014F01200CA
:10257000F301000000000000000008FF00000080E0
:102580005B0011C04EF012C04FF01200A498A38857
:0A259000F28CF28E12007F8E120012
:020000040030CA
:0E000000FF060D3E3C9D85FF00000FE00F4007
:00000001FF
